{
  "contractName": "Comune",
  "abi": [
    {
      "inputs": [
        {
          "internalType": "contract MuniCoin",
          "name": "_municoin",
          "type": "address"
        }
      ],
      "payable": false,
      "stateMutability": "nonpayable",
      "type": "constructor"
    },
    {
      "constant": true,
      "inputs": [
        {
          "internalType": "uint256",
          "name": "",
          "type": "uint256"
        }
      ],
      "name": "idGiustificativi",
      "outputs": [
        {
          "internalType": "uint256",
          "name": "",
          "type": "uint256"
        }
      ],
      "payable": false,
      "stateMutability": "view",
      "type": "function"
    },
    {
      "constant": true,
      "inputs": [],
      "name": "idGiustificativo",
      "outputs": [
        {
          "internalType": "uint256",
          "name": "",
          "type": "uint256"
        }
      ],
      "payable": false,
      "stateMutability": "view",
      "type": "function"
    },
    {
      "constant": true,
      "inputs": [],
      "name": "idImpegno",
      "outputs": [
        {
          "internalType": "uint256",
          "name": "",
          "type": "uint256"
        }
      ],
      "payable": false,
      "stateMutability": "view",
      "type": "function"
    },
    {
      "constant": true,
      "inputs": [],
      "name": "idSoggettoAccreditato",
      "outputs": [
        {
          "internalType": "uint256",
          "name": "",
          "type": "uint256"
        }
      ],
      "payable": false,
      "stateMutability": "view",
      "type": "function"
    },
    {
      "constant": true,
      "inputs": [
        {
          "internalType": "uint256",
          "name": "",
          "type": "uint256"
        }
      ],
      "name": "impegni",
      "outputs": [
        {
          "internalType": "uint256",
          "name": "idImpegno",
          "type": "uint256"
        },
        {
          "internalType": "bytes32",
          "name": "nome",
          "type": "bytes32"
        },
        {
          "internalType": "uint256",
          "name": "anno",
          "type": "uint256"
        },
        {
          "internalType": "uint256",
          "name": "balance",
          "type": "uint256"
        }
      ],
      "payable": false,
      "stateMutability": "view",
      "type": "function"
    },
    {
      "constant": true,
      "inputs": [],
      "name": "municoin",
      "outputs": [
        {
          "internalType": "contract MuniCoin",
          "name": "",
          "type": "address"
        }
      ],
      "payable": false,
      "stateMutability": "view",
      "type": "function"
    },
    {
      "constant": true,
      "inputs": [],
      "name": "name",
      "outputs": [
        {
          "internalType": "string",
          "name": "",
          "type": "string"
        }
      ],
      "payable": false,
      "stateMutability": "view",
      "type": "function"
    },
    {
      "constant": true,
      "inputs": [
        {
          "internalType": "address",
          "name": "",
          "type": "address"
        }
      ],
      "name": "soggettiAccreditati",
      "outputs": [
        {
          "internalType": "uint256",
          "name": "idSoggettoAccreditato",
          "type": "uint256"
        },
        {
          "internalType": "string",
          "name": "nome",
          "type": "string"
        },
        {
          "internalType": "address",
          "name": "indirizzo",
          "type": "address"
        },
        {
          "internalType": "uint256",
          "name": "balance",
          "type": "uint256"
        }
      ],
      "payable": false,
      "stateMutability": "view",
      "type": "function"
    },
    {
      "constant": true,
      "inputs": [],
      "name": "getBalance",
      "outputs": [
        {
          "internalType": "uint256",
          "name": "",
          "type": "uint256"
        }
      ],
      "payable": false,
      "stateMutability": "view",
      "type": "function"
    },
    {
      "constant": false,
      "inputs": [
        {
          "internalType": "uint8[]",
          "name": "_OTC",
          "type": "uint8[]"
        },
        {
          "internalType": "uint8[]",
          "name": "_cipherText",
          "type": "uint8[]"
        }
      ],
      "name": "addGiustificativo",
      "outputs": [],
      "payable": false,
      "stateMutability": "nonpayable",
      "type": "function"
    },
    {
      "constant": true,
      "inputs": [
        {
          "internalType": "uint256",
          "name": "_idGiustificativo",
          "type": "uint256"
        }
      ],
      "name": "getGiustificativo",
      "outputs": [
        {
          "components": [
            {
              "internalType": "uint8[]",
              "name": "OTC",
              "type": "uint8[]"
            },
            {
              "internalType": "uint8[]",
              "name": "cipherText",
              "type": "uint8[]"
            },
            {
              "internalType": "address",
              "name": "indirizzo",
              "type": "address"
            },
            {
              "internalType": "uint8",
              "name": "status",
              "type": "uint8"
            },
            {
              "internalType": "uint256",
              "name": "idGiustificativo",
              "type": "uint256"
            }
          ],
          "internalType": "struct Comune.GiustificativoCifrato",
          "name": "",
          "type": "tuple"
        }
      ],
      "payable": false,
      "stateMutability": "view",
      "type": "function"
    },
    {
      "constant": true,
      "inputs": [],
      "name": "getUltimoIdGiustificativo",
      "outputs": [
        {
          "internalType": "uint256",
          "name": "",
          "type": "uint256"
        }
      ],
      "payable": false,
      "stateMutability": "view",
      "type": "function"
    },
    {
      "constant": true,
      "inputs": [],
      "name": "getName",
      "outputs": [
        {
          "internalType": "string",
          "name": "",
          "type": "string"
        }
      ],
      "payable": false,
      "stateMutability": "view",
      "type": "function"
    },
    {
      "constant": false,
      "inputs": [
        {
          "internalType": "string",
          "name": "_nome",
          "type": "string"
        }
      ],
      "name": "setName",
      "outputs": [],
      "payable": false,
      "stateMutability": "nonpayable",
      "type": "function"
    },
    {
      "constant": false,
      "inputs": [
        {
          "internalType": "uint256",
          "name": "_num",
          "type": "uint256"
        }
      ],
      "name": "setNum",
      "outputs": [],
      "payable": false,
      "stateMutability": "nonpayable",
      "type": "function"
    },
    {
      "constant": true,
      "inputs": [],
      "name": "getNum",
      "outputs": [
        {
          "internalType": "uint256",
          "name": "",
          "type": "uint256"
        }
      ],
      "payable": false,
      "stateMutability": "view",
      "type": "function"
    },
    {
      "constant": true,
      "inputs": [],
      "name": "getValoriGiustificativi",
      "outputs": [
        {
          "components": [
            {
              "internalType": "uint8[]",
              "name": "OTC",
              "type": "uint8[]"
            },
            {
              "internalType": "uint8[]",
              "name": "cipherText",
              "type": "uint8[]"
            },
            {
              "internalType": "address",
              "name": "indirizzo",
              "type": "address"
            },
            {
              "internalType": "uint8",
              "name": "status",
              "type": "uint8"
            },
            {
              "internalType": "uint256",
              "name": "idGiustificativo",
              "type": "uint256"
            }
          ],
          "internalType": "struct Comune.GiustificativoCifrato[]",
          "name": "",
          "type": "tuple[]"
        }
      ],
      "payable": false,
      "stateMutability": "view",
      "type": "function"
    },
    {
      "constant": true,
      "inputs": [
        {
          "internalType": "address",
          "name": "account",
          "type": "address"
        }
      ],
      "name": "getSoggettoAccreditato",
      "outputs": [
        {
          "components": [
            {
              "internalType": "uint256",
              "name": "idSoggettoAccreditato",
              "type": "uint256"
            },
            {
              "internalType": "string",
              "name": "nome",
              "type": "string"
            },
            {
              "internalType": "address",
              "name": "indirizzo",
              "type": "address"
            },
            {
              "internalType": "uint256",
              "name": "balance",
              "type": "uint256"
            }
          ],
          "internalType": "struct Comune.SoggettoAccreditato",
          "name": "",
          "type": "tuple"
        }
      ],
      "payable": false,
      "stateMutability": "view",
      "type": "function"
    },
    {
      "constant": false,
      "inputs": [
        {
          "internalType": "string",
          "name": "nome",
          "type": "string"
        },
        {
          "internalType": "address",
          "name": "indirizzo",
          "type": "address"
        }
      ],
      "name": "addSoggettoAccreditato",
      "outputs": [],
      "payable": false,
      "stateMutability": "nonpayable",
      "type": "function"
    },
    {
      "constant": false,
      "inputs": [
        {
          "internalType": "address",
          "name": "destinatario",
          "type": "address"
        },
        {
          "internalType": "uint256",
          "name": "importo",
          "type": "uint256"
        }
      ],
      "name": "pagaSoggettoMNC",
      "outputs": [],
      "payable": true,
      "stateMutability": "payable",
      "type": "function"
    },
    {
      "constant": false,
      "inputs": [
        {
          "internalType": "uint256",
          "name": "_idGiustificativo",
          "type": "uint256"
        }
      ],
      "name": "setPagato",
      "outputs": [],
      "payable": false,
      "stateMutability": "nonpayable",
      "type": "function"
    }
  ],
  "bytecode": "0x60806040526040518060400160405280600681526020017f436f6d756e6500000000000000000000000000000000000000000000000000008152506000908051906020019062000051929190620000dc565b506000600155600060025560006003553480156200006e57600080fd5b5060405162002155380380620021558339818101604052620000949190810190620001a2565b80600460006101000a81548173ffffffffffffffffffffffffffffffffffffffff021916908373ffffffffffffffffffffffffffffffffffffffff1602179055505062000230565b828054600181600116156101000203166002900490600052602060002090601f016020900481019282601f106200011f57805160ff191683800117855562000150565b8280016001018555821562000150579182015b828111156200014f57825182559160200191906001019062000132565b5b5090506200015f919062000163565b5090565b6200018891905b80821115620001845760008160009055506001016200016a565b5090565b90565b6000815190506200019c8162000216565b92915050565b600060208284031215620001b557600080fd5b6000620001c5848285016200018b565b91505092915050565b6000620001db82620001f6565b9050919050565b6000620001ef82620001ce565b9050919050565b600073ffffffffffffffffffffffffffffffffffffffff82169050919050565b6200022181620001e2565b81146200022d57600080fd5b50565b611f1580620002406000396000f3fe60806040526004361061012a5760003560e01c80636ca9e0dc116100ab578063c47f00271161006f578063c47f0027146103fe578063c7251be014610427578063cd16ecbf14610464578063d7c031521461048d578063e0fbebbb146104b6578063e6b5f75e146104e15761012a565b80636ca9e0dc1461031657806376383b7b14610341578063a0e5d6a014610381578063a315f040146103aa578063bd06a9f4146103d35761012a565b806327175516116100f2578063271755161461022d57806329e35f071461025857806338e75372146102835780634cda6dd3146102ae57806367e0badb146102eb5761012a565b806306fdde031461012f57806309d1f5751461015a5780630ac9064f1461019a57806312065fe0146101d757806317d7de7c14610202575b600080fd5b34801561013b57600080fd5b506101446104fd565b6040516101519190611b21565b60405180910390f35b34801561016657600080fd5b50610181600480360361017c9190810190611553565b61059b565b6040516101919493929190611c29565b60405180910390f35b3480156101a657600080fd5b506101c160048036036101bc91908101906116e2565b610683565b6040516101ce9190611bc9565b60405180910390f35b3480156101e357600080fd5b506101ec6106a4565b6040516101f99190611bc9565b60405180910390f35b34801561020e57600080fd5b506102176106c3565b6040516102249190611b43565b60405180910390f35b34801561023957600080fd5b50610242610765565b60405161024f9190611ae4565b60405180910390f35b34801561026457600080fd5b5061026d61093d565b60405161027a9190611bc9565b60405180910390f35b34801561028f57600080fd5b50610298610943565b6040516102a59190611bc9565b60405180910390f35b3480156102ba57600080fd5b506102d560048036036102d09190810190611553565b610950565b6040516102e29190611ba7565b60405180910390f35b3480156102f757600080fd5b50610300610ac1565b60405161030d9190611bc9565b60405180910390f35b34801561032257600080fd5b5061032b610acb565b6040516103389190611bc9565b60405180910390f35b34801561034d57600080fd5b50610368600480360361036391908101906116e2565b610ad1565b6040516103789493929190611be4565b60405180910390f35b34801561038d57600080fd5b506103a860048036036103a3919081019061168e565b610b01565b005b3480156103b657600080fd5b506103d160048036036103cc91908101906116e2565b610c17565b005b3480156103df57600080fd5b506103e8610c52565b6040516103f59190611bc9565b60405180910390f35b34801561040a57600080fd5b506104256004803603610420919081019061164d565b610c58565b005b34801561043357600080fd5b5061044e600480360361044991908101906116e2565b610c72565b60405161045b9190611b85565b60405180910390f35b34801561047057600080fd5b5061048b600480360361048691908101906116e2565b610e20565b005b34801561049957600080fd5b506104b460048036036104af91908101906115b8565b610e2a565b005b3480156104c257600080fd5b506104cb611089565b6040516104d89190611b06565b60405180910390f35b6104fb60048036036104f6919081019061157c565b6110af565b005b60008054600181600116156101000203166002900480601f0160208091040260200160405190810160405280929190818152602001828054600181600116156101000203166002900480156105935780601f1061056857610100808354040283529160200191610593565b820191906000526020600020905b81548152906001019060200180831161057657829003601f168201915b505050505081565b6005602052806000526040600020600091509050806000015490806001018054600181600116156101000203166002900480601f01602080910402602001604051908101604052809291908181526020018280546001816001161561010002031660029004801561064d5780601f106106225761010080835404028352916020019161064d565b820191906000526020600020905b81548152906001019060200180831161063057829003601f168201915b5050505050908060020160009054906101000a900473ffffffffffffffffffffffffffffffffffffffff16908060030154905084565b6008818154811061069057fe5b906000526020600020016000915090505481565b60003073ffffffffffffffffffffffffffffffffffffffff1631905090565b606060008054600181600116156101000203166002900480601f01602080910402602001604051908101604052809291908181526020018280546001816001161561010002031660029004801561075b5780601f106107305761010080835404028352916020019161075b565b820191906000526020600020905b81548152906001019060200180831161073e57829003601f168201915b5050505050905090565b60606007805480602002602001604051908101604052809291908181526020016000905b8282101561093457838290600052602060002090600402016040518060a00160405290816000820180548060200260200160405190810160405280929190818152602001828054801561082157602002820191906000526020600020906000905b82829054906101000a900460ff1660ff16815260200190600101906020826000010492830192600103820291508084116107ea5790505b505050505081526020016001820180548060200260200160405190810160405280929190818152602001828054801561089f57602002820191906000526020600020906000905b82829054906101000a900460ff1660ff16815260200190600101906020826000010492830192600103820291508084116108685790505b505050505081526020016002820160009054906101000a900473ffffffffffffffffffffffffffffffffffffffff1673ffffffffffffffffffffffffffffffffffffffff1673ffffffffffffffffffffffffffffffffffffffff1681526020016002820160149054906101000a900460ff1660ff1660ff16815260200160038201548152505081526020019060010190610789565b50505050905090565b60015481565b6000600160025403905090565b6109586111a6565b6109606111a6565b600560008473ffffffffffffffffffffffffffffffffffffffff1673ffffffffffffffffffffffffffffffffffffffff16815260200190815260200160002060405180608001604052908160008201548152602001600182018054600181600116156101000203166002900480601f016020809104026020016040519081016040528092919081815260200182805460018160011615610100020316600290048015610a4d5780601f10610a2257610100808354040283529160200191610a4d565b820191906000526020600020905b815481529060010190602001808311610a3057829003601f168201915b505050505081526020016002820160009054906101000a900473ffffffffffffffffffffffffffffffffffffffff1673ffffffffffffffffffffffffffffffffffffffff1673ffffffffffffffffffffffffffffffffffffffff168152602001600382015481525050905080915050919050565b6000600154905090565b60025481565b60066020528060005260406000206000915090508060000154908060010154908060020154908060030154905084565b610b096111a6565b604051806080016040528060035481526020018481526020018373ffffffffffffffffffffffffffffffffffffffff1681526020016000815250905080600560008473ffffffffffffffffffffffffffffffffffffffff1673ffffffffffffffffffffffffffffffffffffffff168152602001908152602001600020600082015181600001556020820151816001019080519060200190610bab9291906111e4565b5060408201518160020160006101000a81548173ffffffffffffffffffffffffffffffffffffffff021916908373ffffffffffffffffffffffffffffffffffffffff16021790555060608201518160030155905050600360008154809291906001019190505550505050565b600160078281548110610c2657fe5b906000526020600020906004020160020160146101000a81548160ff021916908360ff16021790555050565b60035481565b8060009080519060200190610c6e929190611264565b5050565b610c7a6112e4565b60078281548110610c8757fe5b90600052602060002090600402016040518060a001604052908160008201805480602002602001604051908101604052809291908181526020018280548015610d1557602002820191906000526020600020906000905b82829054906101000a900460ff1660ff1681526020019060010190602082600001049283019260010382029150808411610cde5790505b5050505050815260200160018201805480602002602001604051908101604052809291908181526020018280548015610d9357602002820191906000526020600020906000905b82829054906101000a900460ff1660ff1681526020019060010190602082600001049283019260010382029150808411610d5c5790505b505050505081526020016002820160009054906101000a900473ffffffffffffffffffffffffffffffffffffffff1673ffffffffffffffffffffffffffffffffffffffff1673ffffffffffffffffffffffffffffffffffffffff1681526020016002820160149054906101000a900460ff1660ff1660ff1681526020016003820154815250509050919050565b8060018190555050565b610e326112e4565b60608351604051908082528060200260200182016040528015610e645781602001602082028038833980820191505090505b50905060608351604051908082528060200260200182016040528015610e995781602001602082028038833980820191505090505b50905060008090505b85518160ff161015610ef557858160ff1681518110610ebd57fe5b6020026020010151838260ff1681518110610ed457fe5b602002602001019060ff16908160ff16815250508080600101915050610ea2565b600090505b84518160ff161015610f4d57848160ff1681518110610f1557fe5b6020026020010151828260ff1681518110610f2c57fe5b602002602001019060ff16908160ff16815250508080600101915050610efa565b6040518060a001604052808481526020018381526020013373ffffffffffffffffffffffffffffffffffffffff168152602001600060ff1681526020016002548152509350600784908060018154018082558091505090600182039060005260206000209060040201600090919290919091506000820151816000019080519060200190610fdc92919061132c565b506020820151816001019080519060200190610ff992919061132c565b5060408201518160020160006101000a81548173ffffffffffffffffffffffffffffffffffffffff021916908373ffffffffffffffffffffffffffffffffffffffff16021790555060608201518160020160146101000a81548160ff021916908360ff16021790555060808201518160030155505050600260008154809291906001019190505550505050505050565b600460009054906101000a900473ffffffffffffffffffffffffffffffffffffffff1681565b600081116110f2576040517f08c379a00000000000000000000000000000000000000000000000000000000081526004016110e990611b65565b60405180910390fd5b600460009054906101000a900473ffffffffffffffffffffffffffffffffffffffff1673ffffffffffffffffffffffffffffffffffffffff1663a9059cbb83836040518363ffffffff1660e01b815260040161114f929190611abb565b602060405180830381600087803b15801561116957600080fd5b505af115801561117d573d6000803e3d6000fd5b505050506040513d601f19601f820116820180604052506111a19190810190611624565b505050565b60405180608001604052806000815260200160608152602001600073ffffffffffffffffffffffffffffffffffffffff168152602001600081525090565b828054600181600116156101000203166002900490600052602060002090601f016020900481019282601f1061122557805160ff1916838001178555611253565b82800160010185558215611253579182015b82811115611252578251825591602001919060010190611237565b5b50905061126091906113d3565b5090565b828054600181600116156101000203166002900490600052602060002090601f016020900481019282601f106112a557805160ff19168380011785556112d3565b828001600101855582156112d3579182015b828111156112d25782518255916020019190600101906112b7565b5b5090506112e091906113d3565b5090565b6040518060a001604052806060815260200160608152602001600073ffffffffffffffffffffffffffffffffffffffff168152602001600060ff168152602001600081525090565b82805482825590600052602060002090601f016020900481019282156113c25791602002820160005b8382111561139357835183826101000a81548160ff021916908360ff1602179055509260200192600101602081600001049283019260010302611355565b80156113c05782816101000a81549060ff0219169055600101602081600001049283019260010302611393565b505b5090506113cf91906113f8565b5090565b6113f591905b808211156113f15760008160009055506001016113d9565b5090565b90565b61142591905b8082111561142157600081816101000a81549060ff0219169055506001016113fe565b5090565b90565b60008135905061143781611e76565b92915050565b600082601f83011261144e57600080fd5b813561146161145c82611ca2565b611c75565b9150818183526020840193506020810190508385602084028201111561148657600080fd5b60005b838110156114b6578161149c888261153e565b845260208401935060208301925050600181019050611489565b5050505092915050565b6000815190506114cf81611e8d565b92915050565b600082601f8301126114e657600080fd5b81356114f96114f482611cca565b611c75565b9150808252602083016020830185838301111561151557600080fd5b611520838284611e23565b50505092915050565b60008135905061153881611ea4565b92915050565b60008135905061154d81611ebb565b92915050565b60006020828403121561156557600080fd5b600061157384828501611428565b91505092915050565b6000806040838503121561158f57600080fd5b600061159d85828601611428565b92505060206115ae85828601611529565b9150509250929050565b600080604083850312156115cb57600080fd5b600083013567ffffffffffffffff8111156115e557600080fd5b6115f18582860161143d565b925050602083013567ffffffffffffffff81111561160e57600080fd5b61161a8582860161143d565b9150509250929050565b60006020828403121561163657600080fd5b6000611644848285016114c0565b91505092915050565b60006020828403121561165f57600080fd5b600082013567ffffffffffffffff81111561167957600080fd5b611685848285016114d5565b91505092915050565b600080604083850312156116a157600080fd5b600083013567ffffffffffffffff8111156116bb57600080fd5b6116c7858286016114d5565b92505060206116d885828601611428565b9150509250929050565b6000602082840312156116f457600080fd5b600061170284828501611529565b91505092915050565b600061171783836119ae565b905092915050565b600061172b8383611aac565b60208301905092915050565b61174081611da0565b82525050565b61174f81611da0565b82525050565b600061176082611d16565b61176a8185611d5c565b93508360208202850161177c85611cf6565b8060005b858110156117b85784840389528151611799858261170b565b94506117a483611d42565b925060208a01995050600181019050611780565b50829750879550505050505092915050565b60006117d582611d21565b6117df8185611d6d565b93506117ea83611d06565b8060005b8381101561181b578151611802888261171f565b975061180d83611d4f565b9250506001810190506117ee565b5085935050505092915050565b61183181611dbe565b82525050565b61184081611dff565b82525050565b600061185182611d37565b61185b8185611d8f565b935061186b818560208601611e32565b61187481611e65565b840191505092915050565b600061188a82611d2c565b6118948185611d7e565b93506118a4818560208601611e32565b6118ad81611e65565b840191505092915050565b60006118c382611d2c565b6118cd8185611d8f565b93506118dd818560208601611e32565b6118e681611e65565b840191505092915050565b60006118fe601f83611d8f565b91507f4c27696d706f72746f20c3a820756e6120636966726120706f736974697661006000830152602082019050919050565b600060a083016000830151848203600086015261194e82826117ca565b9150506020830151848203602086015261196882826117ca565b915050604083015161197d6040860182611737565b5060608301516119906060860182611aac565b5060808301516119a36080860182611a8e565b508091505092915050565b600060a08301600083015184820360008601526119cb82826117ca565b915050602083015184820360208601526119e582826117ca565b91505060408301516119fa6040860182611737565b506060830151611a0d6060860182611aac565b506080830151611a206080860182611a8e565b508091505092915050565b6000608083016000830151611a436000860182611a8e565b5060208301518482036020860152611a5b828261187f565b9150506040830151611a706040860182611737565b506060830151611a836060860182611a8e565b508091505092915050565b611a9781611de8565b82525050565b611aa681611de8565b82525050565b611ab581611df2565b82525050565b6000604082019050611ad06000830185611746565b611add6020830184611a9d565b9392505050565b60006020820190508181036000830152611afe8184611755565b905092915050565b6000602082019050611b1b6000830184611837565b92915050565b60006020820190508181036000830152611b3b81846118b8565b905092915050565b60006020820190508181036000830152611b5d8184611846565b905092915050565b60006020820190508181036000830152611b7e816118f1565b9050919050565b60006020820190508181036000830152611b9f8184611931565b905092915050565b60006020820190508181036000830152611bc18184611a2b565b905092915050565b6000602082019050611bde6000830184611a9d565b92915050565b6000608082019050611bf96000830187611a9d565b611c066020830186611828565b611c136040830185611a9d565b611c206060830184611a9d565b95945050505050565b6000608082019050611c3e6000830187611a9d565b8181036020830152611c5081866118b8565b9050611c5f6040830185611746565b611c6c6060830184611a9d565b95945050505050565b6000604051905081810181811067ffffffffffffffff82111715611c9857600080fd5b8060405250919050565b600067ffffffffffffffff821115611cb957600080fd5b602082029050602081019050919050565b600067ffffffffffffffff821115611ce157600080fd5b601f19601f8301169050602081019050919050565b6000819050602082019050919050565b6000819050602082019050919050565b600081519050919050565b600081519050919050565b600081519050919050565b600081519050919050565b6000602082019050919050565b6000602082019050919050565b600082825260208201905092915050565b600082825260208201905092915050565b600082825260208201905092915050565b600082825260208201905092915050565b6000611dab82611dc8565b9050919050565b60008115159050919050565b6000819050919050565b600073ffffffffffffffffffffffffffffffffffffffff82169050919050565b6000819050919050565b600060ff82169050919050565b6000611e0a82611e11565b9050919050565b6000611e1c82611dc8565b9050919050565b82818337600083830152505050565b60005b83811015611e50578082015181840152602081019050611e35565b83811115611e5f576000848401525b50505050565b6000601f19601f8301169050919050565b611e7f81611da0565b8114611e8a57600080fd5b50565b611e9681611db2565b8114611ea157600080fd5b50565b611ead81611de8565b8114611eb857600080fd5b50565b611ec481611df2565b8114611ecf57600080fd5b5056fea365627a7a723158201c8272c397296b121579e4f9c0fd4a272da89fad89364c70637cccc73eb84c006c6578706572696d656e74616cf564736f6c63430005100040",
  "source": "pragma solidity ^0.5.0;\r\npragma experimental ABIEncoderV2;\r\n\r\nimport \"./MuniCoin.sol\";\r\n\r\n\r\ncontract Comune {\r\n\r\n\t/* STRUTTURE DATI */\r\n\tstruct SoggettoAccreditato {\r\n\t\tuint256 idSoggettoAccreditato;  \r\n\t\tstring nome;\r\n\t\taddress indirizzo;\r\n\t\tuint256 balance;\r\n\t}\r\n\r\n\tstruct Impegno {\r\n\t\tuint256 idImpegno;\t// futura implementazione\r\n\t\tbytes32 nome;\r\n\t\tuint256 anno;\r\n\t\tuint256 balance;\r\n\t}\r\n\r\n\tstruct GiustificativoCifrato {\r\n\t    uint8[] OTC;\r\n\t    uint8[] cipherText;\r\n\t    address indirizzo;\r\n\t    uint8 status;\r\n\t    uint256 idGiustificativo;\r\n\t}\r\n\r\n\t/* VARIABILI */\r\n\tstring public name = \"Comune\";\r\n\tuint256 public idImpegno = 0; //contatore globale per gli impegni\r\n\tuint256 public idGiustificativo = 0; //contatore globale per i giustificativi\r\n\r\n\tuint256 public idSoggettoAccreditato = 0; //contatore globale per i soggetti accreditati\r\n\r\n\tMuniCoin public municoin;\r\n\r\n\t// indirizzo sogg. accreditato => SoggettoAccreditato\r\n\tmapping(address => SoggettoAccreditato) public soggettiAccreditati; // elenco dei soggetti accreditati\r\n\r\n\t// identificativo impegno => impegno\r\n\tmapping(uint256 => Impegno) public impegni; // elenco degli impegni di spesa\r\n\r\n\t// id giustificativo => testo json del giustificativo criptato\r\n\t// mapping(uint256 => string ) public giustificativi;\r\n\tGiustificativoCifrato[] valoriGiustificativi;\r\n\tuint256[] public idGiustificativi;\r\n\r\n\t//restituisce il saldo del contratto\r\n\tfunction getBalance() external view returns (uint256) {\r\n\t\treturn address(this).balance;  //implementazione da rivedere\r\n\t}\r\n\r\n\tconstructor(MuniCoin _municoin) public {\r\n\t\tmunicoin = _municoin;\r\n\t}\r\n\r\n\tfunction addGiustificativo(uint8[] memory _OTC, uint8[] memory _cipherText) public {\r\n\t    GiustificativoCifrato memory giustificativo;\r\n\t    uint8[] memory OTC = new uint8[](_OTC.length);\r\n\t    uint8[] memory cipherText = new uint8[](_cipherText.length);\r\n\t\t\r\n\t    uint8 i;\r\n\t    for(i=0; i<_OTC.length; i++){\r\n\t        OTC[i] = _OTC[i];\r\n\t    }    \r\n\t    for(i=0; i<_cipherText.length; i++){\r\n\t        cipherText[i] = _cipherText[i];\r\n\t    }    \r\n\t\t\r\n\t    giustificativo = GiustificativoCifrato(OTC, cipherText, msg.sender, 0, idGiustificativo);\r\n\t    valoriGiustificativi.push(giustificativo);\r\n\t    idGiustificativo++;\r\n\t}\r\n\r\n\tfunction getGiustificativo(uint256 _idGiustificativo) public view returns (GiustificativoCifrato memory){\r\n\t    return valoriGiustificativi[_idGiustificativo];\r\n\t}\r\n\r\n\tfunction getUltimoIdGiustificativo() public view returns (uint256){\r\n\t    return idGiustificativo -1;\r\n\t}\r\n\r\n\tfunction getName() public view returns (string memory)\r\n\t{\r\n\t    return name;\r\n\t}\r\n\r\n\tfunction setName(string memory _nome) public   \r\n\t{\r\n\t    name = _nome;\r\n\t}\r\n\r\n\tfunction setNum(uint256 _num) public   \r\n\t{\r\n\t    idImpegno = _num;\r\n\t}\r\n\r\n\tfunction getNum() public view returns (uint256)\r\n\t{\r\n\t    return idImpegno;\r\n\t} \r\n\r\n\tfunction getValoriGiustificativi() public view returns (GiustificativoCifrato[] memory)\r\n\t{\r\n\t    return valoriGiustificativi;\r\n\t} \r\n\r\n\tfunction getSoggettoAccreditato(address account) public view returns (SoggettoAccreditato memory)\r\n\t{\r\n\t\tSoggettoAccreditato memory soggetto = soggettiAccreditati[account];   \r\n\t    return soggetto;\r\n\t} \r\n\r\n\tfunction addSoggettoAccreditato(string memory nome, address indirizzo) public {\r\n\t    SoggettoAccreditato memory soggettoAccreditato;\r\n\t    soggettoAccreditato = SoggettoAccreditato(idSoggettoAccreditato, nome,indirizzo, 0);   \r\n\t    soggettiAccreditati[indirizzo] = soggettoAccreditato;\r\n\t    idSoggettoAccreditato++;\r\n\t}\r\n\r\n\tfunction pagaSoggettoMNC(address destinatario, uint importo) public payable {\r\n\t\trequire(importo > 0, \"L'importo  una cifra positiva\");\r\n\t\t//require(address(0) != address(municoin), \"Municoin deve essere valorizzato\");\r\n\t\tmunicoin.transfer(destinatario, importo);\r\n\t}\r\n\r\n\tfunction setPagato(uint256 _idGiustificativo) public {\r\n\t\tvaloriGiustificativi[_idGiustificativo].status = 1;\r\n\t}\r\n\r\n}",
  "sourcePath": "/Users/simone/OneDrive - Universita di Cagliari/Progetto_PSAB/mia-app/src/contracts/Comune.sol",
  "compiler": {
    "name": "solc",
    "version": "0.5.16+commit.9c3226ce.Emscripten.clang"
  },
  "schemaVersion": "3.4.2",
  "updatedAt": "2021-11-29T18:34:45.092Z",
  "networkType": "ethereum",
  "devdoc": {
    "methods": {}
  },
  "userdoc": {
    "methods": {}
  }
}